{
    "contractName": "BuyMeACoffee",
    "abi": [
        {
            "inputs": [],
            "stateMutability": "nonpayable",
            "type": "constructor"
        },
        {
            "anonymous": false,
            "inputs": [
                {
                    "indexed": true,
                    "internalType": "address",
                    "name": "from",
                    "type": "address"
                },
                {
                    "indexed": false,
                    "internalType": "uint256",
                    "name": "timestamp",
                    "type": "uint256"
                },
                {
                    "indexed": false,
                    "internalType": "string",
                    "name": "name",
                    "type": "string"
                },
                {
                    "indexed": false,
                    "internalType": "string",
                    "name": "message",
                    "type": "string"
                }
            ],
            "name": "NewMemo",
            "type": "event"
        },
        {
            "inputs": [
                {
                    "internalType": "string",
                    "name": "_name",
                    "type": "string"
                },
                {
                    "internalType": "string",
                    "name": "_message",
                    "type": "string"
                }
            ],
            "name": "buyCoffee",
            "outputs": [],
            "stateMutability": "payable",
            "type": "function"
        },
        {
            "inputs": [
                {
                    "internalType": "address",
                    "name": "addr",
                    "type": "address"
                }
            ],
            "name": "changeWithdrawAddress",
            "outputs": [],
            "stateMutability": "nonpayable",
            "type": "function"
        },
        {
            "inputs": [],
            "name": "getMemos",
            "outputs": [
                {
                    "components": [
                        {
                            "internalType": "address",
                            "name": "from",
                            "type": "address"
                        },
                        {
                            "internalType": "uint256",
                            "name": "timestamp",
                            "type": "uint256"
                        },
                        {
                            "internalType": "string",
                            "name": "name",
                            "type": "string"
                        },
                        {
                            "internalType": "string",
                            "name": "message",
                            "type": "string"
                        }
                    ],
                    "internalType": "struct BuyMeACoffee.Memo[]",
                    "name": "",
                    "type": "tuple[]"
                }
            ],
            "stateMutability": "view",
            "type": "function"
        },
        {
            "inputs": [],
            "name": "getWithdrawAddress",
            "outputs": [
                {
                    "internalType": "address",
                    "name": "addr",
                    "type": "address"
                }
            ],
            "stateMutability": "view",
            "type": "function"
        },
        {
            "inputs": [],
            "name": "withdrawTips",
            "outputs": [],
            "stateMutability": "nonpayable",
            "type": "function"
        }
    ],
    "bytecode": "608060405234801561001057600080fd5b5060008054336001600160a01b031991821681178355600180549092161790556108c090819061004090396000f3fe60806040526004361061004a5760003560e01c80631453671d1461004f578063204206e1146100715780633aaa74b214610084578063865c517214610099578063e8e7f800146100c4575b600080fd5b34801561005b57600080fd5b5061006f61006a3660046104e1565b6100ec565b005b61006f61007f3660046105b4565b610186565b34801561009057600080fd5b5061006f61030b565b3480156100a557600080fd5b506100ae61033e565b6040516100bb9190610665565b60405180910390f35b3480156100d057600080fd5b506001546040516001600160a01b0390911681526020016100bb565b6000546001600160a01b031633146101645760405162461bcd60e51b815260206004820152603060248201527f6f6e6c7920636f6e7472616374206f776e65722063616e206368616e6765207760448201526f6974686472617720616464726573732160801b60648201526084015b60405180910390fd5b600180546001600160a01b0319166001600160a01b0392909216919091179055565b600034116101d65760405162461bcd60e51b815260206004820152601b60248201527f63616e206e6f742062757920636f66656520666f722030206574680000000000604482015260640161015b565b604080516080810182523381524260208201908152918101848152606082018490526002805460018101825560009190915282517f405787fa12a823e0f2b7631cc41b3ba8828b3321ca811111fa75cd3aa3bb5ace600490920291820180546001600160a01b0319166001600160a01b0390921691909117815593517f405787fa12a823e0f2b7631cc41b3ba8828b3321ca811111fa75cd3aa3bb5acf82015590519192917f405787fa12a823e0f2b7631cc41b3ba8828b3321ca811111fa75cd3aa3bb5ad0909101906102aa9082610795565b50606082015160038201906102bf9082610795565b505050336001600160a01b03167fc56140e05f516509ae28110e0f72e17558a7561630dad2647c3ae87d986e365c4284846040516102ff93929190610855565b60405180910390a25050565b6001546040516001600160a01b03909116904780156108fc02916000818181858888f1935050505061033c57600080fd5b565b60606002805480602002602001604051908101604052809291908181526020016000905b828210156104d8576000848152602090819020604080516080810182526004860290920180546001600160a01b03168352600181015493830193909352600283018054929392918401916103b59061070c565b80601f01602080910402602001604051908101604052809291908181526020018280546103e19061070c565b801561042e5780601f106104035761010080835404028352916020019161042e565b820191906000526020600020905b81548152906001019060200180831161041157829003601f168201915b505050505081526020016003820180546104479061070c565b80601f01602080910402602001604051908101604052809291908181526020018280546104739061070c565b80156104c05780601f10610495576101008083540402835291602001916104c0565b820191906000526020600020905b8154815290600101906020018083116104a357829003601f168201915b50505050508152505081526020019060010190610362565b50505050905090565b6000602082840312156104f357600080fd5b81356001600160a01b038116811461050a57600080fd5b9392505050565b634e487b7160e01b600052604160045260246000fd5b600082601f83011261053857600080fd5b813567ffffffffffffffff8082111561055357610553610511565b604051601f8301601f19908116603f0116810190828211818310171561057b5761057b610511565b8160405283815286602085880101111561059457600080fd5b836020870160208301376000602085830101528094505050505092915050565b600080604083850312156105c757600080fd5b823567ffffffffffffffff808211156105df57600080fd5b6105eb86838701610527565b9350602085013591508082111561060157600080fd5b5061060e85828601610527565b9150509250929050565b6000815180845260005b8181101561063e57602081850181015186830182015201610622565b81811115610650576000602083870101525b50601f01601f19169290920160200192915050565b60006020808301818452808551808352604092508286019150828160051b87010184880160005b838110156106fe57888303603f19018552815180516001600160a01b031684528781015188850152868101516080888601819052906106cd82870182610618565b915050606080830151925085820381870152506106ea8183610618565b96890196945050509086019060010161068c565b509098975050505050505050565b600181811c9082168061072057607f821691505b60208210810361074057634e487b7160e01b600052602260045260246000fd5b50919050565b601f82111561079057600081815260208120601f850160051c8101602086101561076d5750805b601f850160051c820191505b8181101561078c57828155600101610779565b5050505b505050565b815167ffffffffffffffff8111156107af576107af610511565b6107c3816107bd845461070c565b84610746565b602080601f8311600181146107f857600084156107e05750858301515b600019600386901b1c1916600185901b17855561078c565b600085815260208120601f198616915b8281101561082757888601518255948401946001909101908401610808565b50858210156108455787850151600019600388901b60f8161c191681555b5050505050600190811b01905550565b83815260606020820152600061086e6060830185610618565b82810360408401526108808185610618565b969550505050505056fea264697066735822122045b4c9b8af88ba05dc15fe68ba81bd07ae8abdebab78d6138832268f2c206fe464736f6c634300080f0033",
    "sourcePath": "c:/Learn/road-to-web3/week2/BuyMeACoffee-contracts/contracts/BuyMeACOffee.sol",
    "compiler": {
        "name": "solc",
        "version": "0.8.15+commit.e14f2714"
    },
    "functionHashes": {
        "buyCoffee(string,string)": "204206e1",
        "changeWithdrawAddress(address)": "1453671d",
        "getMemos()": "865c5172",
        "getWithdrawAddress()": "e8e7f800",
        "withdrawTips()": "3aaa74b2"
    },
    "gasEstimates": {
        "creation": {
            "codeDepositCost": "448000",
            "executionCost": "48951",
            "totalCost": "496951"
        },
        "external": {
            "buyCoffee(string,string)": "infinite",
            "changeWithdrawAddress(address)": "26654",
            "getMemos()": "infinite",
            "getWithdrawAddress()": "2367",
            "withdrawTips()": "infinite"
        }
    }
}